:1010000000000420C58C0000098D00000B8D00003D
:101010000D8D00000F8D0000118D000000000000FC
:10102000000000000000000000000000138D000020
:10103000158D000000000000178D0000198D0000C4
:10104000595C000091C200001B8D00001B8D000048
:101050001B8D00001B8D00001B8D00001B8D0000F0
:101060001B8D00001B8D00001B8D00001B8D0000E0
:101070001B8D0000214A00001B8D00001B8D00000D
:101080001B8D00001B8D00001B8D00001B8D0000C0
:101090001B8D00001B8D00001B8D00001B8D0000B0
:1010A0001B8D00001B8D00001B8D00001B8D0000A0
:1010B0001B8D00001B8D00000000000000000000E0
:1010C0001B8D00001B8D00001B8D00001B8D000080
:1010D000A94900001B8D00001B8D0000156C00004D
:1010E0001B8D00001B8D00001B8D00000000000008
:1010F000000000001B8D0000000000001B8D0000A0
:1011000000000000000000000000000000000000DF
:1011100000000000000000000000000000000000CF
:1011200000000000000000000000000000000000BF
:1011300000000000000000000000000000000000AF
:10114000000000000000000000000000000000009F
:10115000000000000000000000000000000000008F
:10116000000000000000000000000000000000007F
:10117000000000000000000000000000000000006F
:10118000000000000000000000000000000000005F
:10119000000000000000000000000000000000004F
:1011A000000000000000000000000000000000003F
:1011B000000000000000000000000000000000002F
:1011C000000000000000000000000000000000001F
:1011D000000000000000000000000000000000000F
:1011E00000000000000000000000000000000000FF
:1011F00000000000000000000000000000000000EF
:1012000010B5054C237833B9044B13B10448AFF340
:1012100000800123237010BD180100200000000091
:10122000F41B010008B5034B1BB103490348AFF39E
:10123000008008BD000000001C010020F41B01001C
:10124000154B002B08BF134B9D46A3F5803A002198
:101250008B460F461348144A121A0DF0C7F90F4B6C
:10126000002B00D098470E4B002B00D09847002051
:10127000002104000D000D48002802D00C48AFF3F7
:1012800000800DF051F92000290000F015F80DF054
:1012900025F900BF00000800000004200000000045
:1012A0000000000018010020D423002000000000EE
:1012B000000000007047000070B505460E4631463C
:1012C000284604F06FF802F091FA044628B90B4B57
:1012D0000B4A0C486A210DF0E3F800F053F804F0D3
:1012E00093F818B1204602F085FAE8E7204602F0AC
:1012F0001DFB204604F08EF8F1E700BF54FA000011
:10130000A6FA00005DFA000038B504460D4600F06C
:1013100015FD04F5557104F54E7000F04CF92346A7
:1013200004F57871144A04F5507000F0A5F904F240
:101330005A33C4F8543304F2E6328023A4F8583305
:10134000C4F8E02300234FF40072A4F8DC33A4F8BF
:10135000E42384F8E83529462346084A04F2EC5091
:1013600002F07AFB06492246201D00F02FFA04F015
:1013700037FA204638BD00BF991500008D140000D3
:10138000B713000010B5054C01462046FFF7BCFF1F
:1013900000F054FD844200D0FEE710BD380100206B
:1013A000D0F8542300F25A339A4203D100F2EC50A1
:1013B00002F068BB7047FFF7F3BF2DE9F84304461E
:1013C000051D00F54E764FF002080127284600F073
:1013D00003FB94F8DC3370B1022B47D0D4F85413DC
:1013E00004F25A30091A89B200294DD004F000FAEB
:1013F000002849D0FEE7012B21D0022B36D0002B4C
:10140000E4D1204600F020FD08B103F049FC20465D
:1014100000F024FD0028E1D1304600F0D0F800288B
:10142000DCD1284600F023FB84F8DC73284600F06A
:1014300033FB60B9284600F038FB84F8DD0394F8EC
:10144000DD13304600F0C4F80028EFD0C6E794F86A
:101450009890284600F0FCFBB9F1000F04D094F8F6
:1014600098300BB984F8E87584F8DC83304600F0D6
:10147000DDF80028B2D194F8E83584F8DC03002BBD
:10148000A4D084F8E805A0E7BDE8F88308B500F02B
:10149000D5FCBDE80840FFF790BF00F25A33C0F812
:1014A00054338023A0F8583300F2EC5002F0EABA2B
:1014B00008B500F0C3FC18B1BDE80840FFF7EDBF68
:1014C00008BD13B50446019100F0B8FC40B1019A83
:1014D000214600F5507002B0BDE8104000F0D4B8CD
:1014E00002B010BDF0B50C46A1B015461E4600F086
:1014F000BFFC2346194A1A4F802168460DF04AFC6A
:1015000068460DF083FC69460246002001F03CFB72
:101510000024A642A0B20ED0292C0BD0A4EB84014B
:1015200004EB44002B5D3A46803168440DF032FCF8
:101530000134EEE7204600EB4000C0F18001094A8B
:1015400068440DF027FC68460DF060FC0DF10101C8
:10155000421E002001F018FB21B0F0BDABFA0000E4
:10156000BFFA0000C5FA000038B5D0F8E03300F249
:10157000E6355B1B04469BB251B91A46294601F079
:10158000D1F94FF40073C4F8E053A4F8E43338BD44
:101590002A46FFF7A7FFF4E7FFF7E6BF838843B1CA
:1015A00003685A1C026019708388013B8380002005
:1015B000704703207047002201608280704708B5A1
:1015C0004FF6FF7383807E210068FFF7E7FF08BDB9
:1015D0007E2938B505460C4600680AD87C2903D810
:1015E00001F0FD03112B06D18388012B08D80320BD
:1015F00005E0F829F7E72146FFF7D0FF40B138BDF5
:101600007D21FFF7CBFF286884F02001FFF7C6FF9C
:10161000AA88054B5440E4B2002033F8143083EA22
:101620001223AB80EBE700BFC8FA0000F7B50368F0
:10163000044693E80300A6886D4685E80300F1435D
:101640008FB22046C9B2FFF7C3FF034658B9390A23
:101650002046FFF7BDFF034628B920687E21FFF72B
:101660009DFF034628B122680098A98810609180E8
:10167000A680184603B0F0BD30B50025C0E90112C0
:10168000C0E90335057030BD2DE9F843384F0446F5
:101690000D468E184FF00208AE4266D0237815F83A
:1016A000011B012B0BD0022B3ED0002BF4D17E2945
:1016B000F2D1012323704FF6FF732361ECE77D29FC
:1016C00017D07E2918D06068B0F80490B9F1000FE7
:1016D00044D0B4F810C081EA0C02D2B237F812300C
:1016E00083EA1C232382FFF759FF638A0133638255
:1016F000D2E784F80080CFE7638A002BDBD0012B90
:1017000010D9228A4FF2B8039A420BD163681A6843
:10171000023A1A609A8802329A800021D4E9023093
:101720009847C8E70621F9E76068B0F80490B9F176
:10173000000F13D0B4F810C081F0200181EA0C0230
:10174000D2B237F8123083EA1C232382FFF726FF38
:10175000638A01336382012323709DE7A368E068F5
:101760000321984784F8009096E7BDE8F88300BF0E
:10177000C8FA000010B5036803625A1E11468B4276
:1017800002D904892144FAE741620221017700214C
:101790000163A1F58031C0E90A33C0E90D1393421A
:1017A00002D901890A44FAE7C0E90F23C0E91133DD
:1017B00010BD10B5002301601144C0E90333C0E936
:1017C000053341600281FFF7D5FF10BDC0E9031268
:1017D0007047C0E905127047012B09D0022B0ED0CB
:1017E00073B9114442688A420AD80389C91AFAE7D0
:1017F000891A02688A4203D903891944FAE7FEE785
:1018000008467047012B0DD0022B14D0A3B98A4291
:1018100002D3521A90B2704743680068591A121ADC
:101820000A44F7E78A4201D88A1AF3E74368006856
:101830009A1A091AF4E7FEE70022EBE710B51446FE
:1018400012120A700122FFF7C7FF047010BD10B515
:10185000134601220C78FFF7BFFF007824022044D2
:1018600080B210BD73B5037FC26A01930E46816AD0
:1018700000910446FFF7C6FF01280099054613D9D9
:10188000019B20461A46FFF7E2FF023DC5F30D0516
:1018900035432843019B009982B22046FFF7CEFFD3
:1018A000E36AA36202B070BDE162FBE72DE9F34198
:1018B0001F46037F022B04460D46164621D0826A3E
:1018C0004968914221D1C26A01930091FFF79AFFC2
:1018D0002D68019B009980462A462046FFF792FF1B
:1018E0003844404511DC3744BE4210D016F8013B65
:1018F0002B702946237F01222046FFF76DFF054606
:10190000F2E70D2002B0BDE8F0810720FAE70020E1
:10191000F8E7037F022BF7B504460D461CD0826A18
:101920004968914218D1C76A00933A460191FFF77E
:1019300069FF2D68009B019906462A462046FFF75D
:1019400061FF864208D9009B3A462946204603B0EB
:10195000BDE8F040FFF756BF002003B0F0BD037FA5
:10196000022B73B504460D4616D0826A496891422F
:1019700014D1C26A01930091FFF744FF2D68019BC7
:10198000009906462A462046FFF73CFF864205D9C5
:10199000E562002002B070BD0D20FBE70720F9E7EB
:1019A00038B5037F022B044612D00021FFF75AFFFF
:1019B000227FA06A04EB8203196A21631862E5683A
:1019C00015B120692346A84702232377002038BD9C
:1019D0000D20FCE7006B7047C26B436A9A4205D149
:1019E000836B006A1B1A58425841704700207047A9
:1019F00090F8353033B9C36B426A9B1A18BF012384
:101A000080F8343070472DE9F84390F8348000EBCB
:101A100088060446376A656C2564BD4222D042467A
:101A200029462046FFF713FF030402D5B36B9D42FE
:101A300018D1C0F30D00821C434629462046FFF70B
:101A4000CBFE434681466064022229462046FFF7CA
:101A5000C3FE8145A064DED0012384F83530002028
:101A6000BDE8F883032384F835301720F8E708B57C
:101A70000146FFF7B1FF68B90846FFF7B9FF91F8D3
:101A800034300E3351F82330C1E91033BDE808403B
:101A9000FFF7B9BF172008BD90F8350003281ABF1B
:101AA000B0FA80F040090120704790F83520012AF3
:101AB00038B504460ED1816C90F834300D78FFF7BC
:101AC0008BFE636CA064984202D12046FFF79BFF17
:101AD000284638BD0025FBE7D0E90E23416A99422C
:101AE0000CD1017F012909D00168531E994202D906
:101AF00002891344FAE74362C3637047016A914263
:101B00000AD1027F42B141680133994202D8028969
:101B10009B1AFAE7036283637047037F022B06D0A8
:101B2000083350F82330C0E90A3302230377FFF764
:101B3000D3BFF8B5047F022C05460E4600D1FEE760
:101B40002346C76AB4FA84F464090122394608348A
:101B5000FFF742FE55F82430834203D03E70E8621E
:101B60000020F8BD2846FFF7D8FF0320F9E7D0E9A9
:101B70000A239A4270B505461BD1037F0833002122
:101B800050F82360B2420CBF4FF400460026FFF726
:101B9000D0FF044658B901462846FFF7CAFF04465D
:101BA00028B92B7FA96A32462846FFF747FE204610
:101BB00070BD0024FBE738B5037F022B04460D46B9
:101BC00007D0FFF7D4FF18B9E36A2B60A36A6B60F4
:101BD00038BD0D20FCE713B5037F0191022B0446AD
:101BE00009D0FFF7C4FF38B90199204602B0BDE81B
:101BF0001040FFF79EBF0D2002B010BDF8B5037F67
:101C0000022B07460D46164610D0FFF7B0FF0446DC
:101C100050B92E44B54207D015F8011B3846FFF7DE
:101C200088FF0028F6D004462046F8BD0D24FBE7C7
:101C300038B50D460446FFF770FF0DB1012D00D1F8
:101C40002577237F083354F82330C4E90A3338BD9D
:101C50002DE9F0470446FFF7BFFE00283BD12046A0
:101C6000FFF7C6FE94F834A004EB8A080B26D8F8D8
:101C70003870D8F820903D46A94516D052462946DE
:101C80002046FFF7E4FD030401D5BD420DD1C0F3AA
:101C90000D00821C294653462046FFF79DFD013E5C
:101CA00016F0FF060546E7D1FEE7C8F83850204693
:101CB000FFF712FF656900264FF6FF7384F8356061
:101CC000E38655B1A06994F8342023463946A847E5
:101CD0003046BDE8F0871720FBE72846F9E71828CB
:101CE00026D8DFE800F0280D0F112513151725253C
:101CF0002525191B1D1F25252525252525232100E3
:101D0000012070470E2070470B2070470C20704751
:101D10000920704703207047022070470420704755
:101D2000112070471220704713207047142070470D
:101D300000F5804070470020704700002DE9F04119
:101D40000646044646F8041B4FF400720F4600F1A5
:101D5000D1013046FFF72DFD0025266504F154031F
:101D600004F17402C3E9005508339A42FAD1C4E978
:101D70001E55A4F8745004F1800001F02FFA2A4A8D
:101D800084F89850C823C4E9282304F1AC084FF61E
:101D9000FF73264AA4F8A83039462346C4F89C505D
:101DA000404601F059FE042184F8C8102049C4F8C7
:101DB000B450002300220968C4F8CC10C4E92E23D3
:101DC000C4E93023C4E9CC23236884F8D0504FF011
:101DD0007F41C4E9C755C4E9C95584F8D152A4F874
:101DE000D252C4F81053C4F8141384F8185384F86A
:101DF0002C5303B9FEE70F4B0F491C6022463046B7
:101E0000FFF7E7FC3C22002104F535700CF0EEFBF7
:101E10007722002104F1B80001F002FC404601F0F5
:101E200031FE2046BDE8F08100F8FF07C521000023
:101E3000C8FC0000300700202B220000014B18686E
:101E4000704700BF3007002090F8C830042B1ABF3D
:101E500090F8980080F001000020704790F8C8309A
:101E6000012B06BF90F8980080F001000020704719
:101E7000D0F81C330133C0F81C3370472DE9F84308
:101E8000994690F814330D1E0446164608BF702577
:101E900013B10D20BDE8F88300F1B8072946384694
:101EA00001F03CFC0028F4D194F8D22294F8D3320B
:101EB0009A420AD00B220021384601F0B1FB04F10E
:101EC000AC0001F0DFFD0320E4E704F150082B46ED
:101ED00006228021404601F070FB48B9206D1FFAB0
:101EE00089F23146FFF78AFE10B9404601F048FBFF
:101EF0000328CFD1DEE70000013804289ABF024B47
:101F0000185C0020704700BFCCFC0000F8B511F051
:101F10000F0601F00F0708D1022A04D11A463146F4
:101F2000B83001F07DFB3046F8BD90F8D35290F800
:101F3000D2126C1A0E2C06DD0E220021B83001F0F0
:101F40006FFB0326EFE790F8D142B44217D08D42E1
:101F500015D90C460E2C02D90F3CE4B2FAE7B43482
:101F600000EB840494F804C01CF0100F0DD00CF0AA
:101F70000F0EB64509D16FF3041C84F804C02C463B
:101F80000E2C05D90F3CE4B2FAE70131C9B2DEE705
:101F900002F0030247F0100141EA4211B434084A4A
:101FA00000EB840402EAC3131943636803F000439F
:101FB000194301356160002680F8D352B3E700BFB2
:101FC00080FFFF7F13460222FFF7A0BF38B511F054
:101FD000300F00F1500408BFC0F89C2015460023C4
:101FE0000622204601F0E9FA48B92946204601F0C8
:101FF0002CFA20B92046BDE8384001F0C1BA38BDFE
:102000002DE9F74304460D466846114691461E46A3
:1020100001F0B4F8DDE900782FB918F0010F02D112
:10202000E6B932461BE004F150064B46062229462B
:10203000304601F0C2FAC8B94FEA680318F0010F40
:1020400018BFE35804EB680018BFDF59B84768B9F8
:10205000304603B0BDE8F04301F092BA0D222946A4
:10206000204603B0BDE8F043FFF7B0BF03B0BDE8C2
:10207000F08370B50446002694F8D25294F8D33217
:10208000AB4237D0B43504EB85021379D90616D4A8
:1020900004EB85052B796FF304132B7194F8D2327E
:1020A0000133DBB20F2B84F8D232E5D194F8D3326E
:1020B00084F8D2620E2B1AD90F3BDBB2FAE703F099
:1020C0000F01526803F06003402B41F08001C2F31E
:1020D000D71205D12046FFF779FF0028D8D070BD70
:1020E000B3FA83F35B092046FFF78AFFF5E784F82C
:1020F000D332C1E70020F2E72DE9F74FD0E92E23D4
:10210000134304464BD0B83001F087FA2C4F804679
:1021100000254FF0010AEBB2434540D2D4E92E30FE
:10212000C5F12001A5F12002EB4000FA01F10B43BB
:1021300020FA02F2134313F0010FC5F12009A5F1B3
:10214000200602D10C370135E5E73A686ABBD7F8BB
:1021500004B0BBF1770F06D1206802F087FD082894
:1021600098BF00F1700B5A4680212046FFF72EFFE2
:10217000A8B9D4E92E120AFA06F62AFA09F90AFAD7
:1021800005F321EA030346EA0906009322EA06035F
:102190000193DDE90023C4E92E231343D2D10123A7
:1021A00084F82C3303B0BDE8F08F94F82C33002B67
:1021B000DFD0012380212046FFF722FFD8E700BFB0
:1021C00098FF0000014B1868FFF796BF300700200A
:1021D00090F8983010B5044633B1D0F8CC308B422B
:1021E00004BF002380F898302046FFF742FFD8B99B
:1021F00094F8D01099B101230C222046FFF700FF7C
:1022000090B994F8C83084F8D000042B07D0201D72
:10221000FFF7E0FB0123C4F8CC0084F89830204697
:10222000BDE81040FFF768BF10BDFFF7D1BFF8B59C
:1022300000F1500504462846069EBDF81C7001F0CA
:10224000BCF950B9206D3A463146FFF7D7FC20B9AA
:102250002846BDE8F84001F093B9F8BD2DE9F04FEC
:10226000042B87B004460D46174602D0052B18D024
:10227000FEE7114604A800F099FFDDE904864FF05F
:10228000070906F0010BB8F1000F13D1BBF1000FE5
:1022900010D10D2229462046FFF794FE07B0BDE875
:1022A000F08F114604A800F08DFF4FF00809DDE91A
:1022B0000486E6E704F1800A504601F056F80DF175
:1022C0000A0203A9504601F030F8504601F054F8D4
:1022D000002384F8143304EB66007310BBF1000F85
:1022E00002D0E35853F80880C047012384F8143320
:1022F000064618B1FFF7F3FC0246CBE7BDF80A30FB
:102300000193039B00934A463B4629462046FFF72C
:102310008EFF0028C2D03246BCE708B50022FFF786
:1023200051FE08BD38B50446006801F065FA722216
:1023300080212046FFF74AFE054648B104F1B80067
:102340007722002101F06CF904F1AC0001F09AFB56
:10235000024B00221A60284638BD00BF300700201B
:1023600010B50446006801F050FA0146206DBDE842
:102370001040FFF730BC10B50446006801F0C1FA08
:102380000146206DBDE81040FFF725BC37B500239E
:10239000054601A98030019300F0A2FF044690B9E0
:1023A0009DF80410286801F0AEFA044658B9286870
:1023B00001F02BFA38B195F8123323B1034928689C
:1023C00001F032FA0446204603B030BD652C00000F
:1023D00010B50446006802F09FFD002818BF0221D6
:1023E000206D08BF0021BDE81040FFF7F4BB37B5F2
:1023F000002305460DF1070180308DF8073000F00D
:1024000005FF044658B99DF8073023B1013B012B65
:1024100008D9072403E00146286802F07FFD204622
:1024200003B030BD0121F7E710B5044654F8500B56
:1024300001F06CFA01462046BDE8104000F0A9BF4B
:1024400013B504460DF10601803000F00DFF20B9F0
:10245000BDF80610206801F05BFA02B010BD10B59F
:102460000446006801F057FA08220146206DBDE8D5
:102470001040FFF7C3BB13B50822044601A9803002
:1024800000F045FF18B90199206801F046FA02B042
:1024900010BD10B5044654F8500B01F041FA014646
:1024A0002046BDE8104000F074BF90F81213006D94
:1024B000FFF791BB37B5002305460DF107018030CA
:1024C0008DF8073000F0B2FE044678B9286801F0B4
:1024D0009CF938B19DF80730286853B1064901F0DE
:1024E000A3F904469DF8073085F81233204603B05F
:1024F00030BD01F08FF9F4E7652C0000F8B5054612
:102500000E460024012707FA04F33342E1B204D156
:102510000134202CF7D1002004E0286DFFF75BFB8D
:102520000028F5D0F8BD0023F7B505460C460B6032
:1025300000F180070126B5F88620B5F888309A4268
:102540000FD00DF10701384600F060FE50B99DF83C
:1025500007301F2B08D8226806FA03F313432360C1
:10256000E9E7002003B0F0BD0720FBE7D0F8A0109A
:10257000FFF7C4BF13B5002301A904460193FFF779
:10258000D2FF10B9019BC4F8A03002B010BDB0F862
:10259000A410503000F0FDBE00F1A401803000F026
:1025A00063BE10B50446006801F02FF9014628B15A
:1025B00094F9173301330CBF00210221206DBDE8CF
:1025C0001040FFF708BB000037B5002305460DF1AA
:1025D000070180308DF8073000F018FE044608BB74
:1025E0009DF80730F3B1022B1FD1286801F00DF9D7
:1025F000C0B195F91733013319D1D5F8A030C3B163
:102600005A1E1A4015D15B08D1B2104602F10102E0
:10261000F9D185F81703084BB5F8A420286801F014
:102620000EF90446204603B030BD0C24FAE70D2411
:10263000F8E70724F6E700BFDD2D000013B50446D8
:1026400001A9803000F04CFE28B90199012204F163
:10265000B80001F01BF802B010BD13B5044601A983
:10266000803000F03DFE28B90246019904F1B8001F
:1026700001F00CF802B010BDD0F89C10503000F002
:10268000E4BE10B500F150040421204600F0DDFE48
:1026900028B920460321BDE8104000F0D6BE10BD89
:1026A0000321503000F0D1BE0021503000F0CDBEEB
:1026B00010B500F150040521204600F0C6FEA8B96F
:1026C0000C21204600F0C1FE80B91821204600F000
:1026D000BCFE58B92221204600F0B7FE30B9204692
:1026E00040F20121BDE8104000F0AFBE10BD10B5B2
:1026F000044601F083F8014604F15000BDE81040A3
:1027000000F0E0BE006D0121FFF765BA006D002109
:10271000FFF761BA006D0421FFF75DBA0C20704726
:1027200013B504466946006801F0FCF8206D0822E4
:102730006946FFF763FA02B010BD0221503000F085
:102740005ABF90F8C810006DFFF745BA73B504463C
:102750000E4680300DF1070100F058FD80BB9DF85A
:102760000730022B23D002D9DA1E012A21D884F89F
:10277000C830002384F8D0300C2201233146204693
:10278000FFF73EFC94F8C830042B054608D090B9FA
:10279000201DFFF71FF9C4F8CC00012384F89830FE
:1027A00015B184F8D0600025284602B070BD012321
:1027B000DDE70323DBE7074B1B68C4F8CC30ECE70D
:1027C000FFF78DFA314602462046FFF7FFFB05462C
:1027D000EAE700BFC8FC00000C2A10B51C4603D075
:1027E000712A06D0002010BDFFF7B0FF2070012035
:1027F000F9E700F02DFCF9E7F0B585B004460D4689
:1028000002A81146002716468DF8077000F0C2FC9A
:10281000DDE9023000F0010273B96AB90DF1070376
:10282000324629462046FFF7D7FFF8B90D22294640
:102830002046FFF7C7FB17E0411084F8147304EB40
:1028400060000AB16258D358984701228DF80700FA
:1028500084F8142318B1FFF742FA0246E7E733463B
:1028600029462046FFF752FB8DF807009DF8070028
:1028700005B0F0BD73B5002304460D46803001A9B4
:102880001646019300F02CFD024640B1FFF727FAEF
:10289000294602462046FFF795FB024604E0032E38
:1028A00015D004D8022E0CD0104602B070BD331FD4
:1028B000012BF9D8019A334629462046FFF7CEFC72
:1028C000EBE7019B29462046FFF720FBE5E7019A4D
:1028D00029462046FFF790FFDFE737B504460D464F
:1028E000803001A900F0FCFC80B9019A012A0FD0C8
:1028F00008D9931E032B10D9052229462046FFF73D
:1029000061FB03E029462046FFF707FD03B030BD19
:1029100029462046FFF706FDF8E729462046FFF73F
:10292000A9FFF3E730B5012385B080F814330446DE
:102930000025803001908DF80F5000F05CFC0423DE
:10294000019884F8C83084F898500DF10F0100F018
:102950005DFC90B99DF90F309DF80F10AB420CDA79
:10296000D4F8203311F0300F03F10103C4F8203301
:1029700008D006222046FFF729FB002384F81433F1
:1029800005B030BD2046FFF7A8FF38B19DF80F1005
:10299000FFF7A5F902462046FFF714FB94F8D3226F
:1029A00094F8D2329A4202D02046FFF762FB9DF89B
:1029B0000F3094F8D12203F00F0332B19A421EBFB8
:1029C000D4F824230132C4F824230F2B14BF01337D
:1029D000012384F8D132D0E710B50446006802F034
:1029E00089FAC1B2206DBDE81040FFF7F4B810B508
:1029F0000446006802F0B2FCC1B2206DBDE8104090
:102A0000FFF7E9B810B50446006800F07AFF014608
:102A1000B0B10A280CD84FF4FA60414301F55C21AB
:102A200001F5346104F15000BDE8104000F0C0BC75
:102A3000192807D8044841F2883303FB0101F1E764
:102A40000249EFE70021EDE7B0DB2300CC3F0D00AA
:102A500013B504460DF10701006802F0CDFA30B954
:102A60009DF80710206DFFF7B6F802B010BDFFF714
:102A700036F9014604F1500000F0BDFDF5E713B54D
:102A8000002304460DF1070180308DF8073000F077
:102A9000DFFB20B99DF90710206802F0BCFA02B0F4
:102AA00010BD13B504460DF10701006802F090FA5D
:102AB00030B99DF80710206DFFF78DF802B010BDFA
:102AC000FFF70DF9014604F1500000F094FDF5E721
:102AD00013B5002304460DF1070180308DF807304F
:102AE00000F0B6FB20B99DF90710206802F07AFAD1
:102AF00002B010BDFEE7FEE710B5044600F014FF7B
:102B0000FFF7FAF90146206DBDE81040FFF763B802
:102B1000F7B5002300220546CDE9002301F065FE4C
:102B20006946044605F1800000F0B2FB60B9DDE9BA
:102B3000006723460024A74208BF9E4206D3F21A2C
:102B400067EB0403C5E9CC2303B0F0BD0720FBE726
:102B5000D0E9CC23503000F046BC10B504460068E4
:102B600001F0A8FA01462046BDE81040FFF7C6BCB8
:102B700010B50446006801F0A1FA01462046BDE800
:102B80001040FFF7BBBC00001346074A10B414689E
:102B900034B10A46014620465DF8044BFFF76EB992
:102BA0000D205DF8044B704730070020F8B500F1A8
:102BB000500406460D461746802171230622204602
:102BC00000F0FBFC014600284BD1002F45D1AA881C
:102BD0002968204600F064FC002842D1297C306D31
:102BE000FEF7F9FF00283CD1306D8021FEF7F3FF9E
:102BF000B8BBAB7C13F0010F14BF1021002120469D
:102C000000F0C7FB68BB204600F076FC48BBA97902
:102C1000306DFEF7E0FF20BB697C306DFEF7DBFF17
:102C2000F8B9D5E90223204600F0DDFBC8B92046FB
:102C300000F081FCA8B9204600F05EFC88B9394656
:102C4000204600F002FC60B9204600F074FC40B958
:102C50002046BDE8F84000F093BC204600F099FB08
:102C6000BAE7F8BD014B1868FFF7A0BF3007002096
:102C70002DE9F04190F81613064614461F46002928
:102C80006CD041F0800122B3136893F80080C8F340
:102C90000018002306F1500586F816330622284650
:102CA00000F08BFC002859D13846FFF718F8014690
:102CB000284600F0CAFB002850D1306D4146FEF78F
:102CC0008AFF00284AD134B92846BDE8F04100F017
:102CD00057BC9046DDE7002FF6D1A188284600F0CA
:102CE00058FB00283AD1A2882168306DFEF786FF94
:102CF000A0BB217C306DFEF76EFF78BB306D80216C
:102D0000FEF769FF50BB3946284600F042FB28BB5E
:102D1000284600F0F1FB08BBA179306DFEF75BFFA0
:102D2000E0B9617C306DFEF756FFB8B9D4E90223F3
:102D3000284600F058FB88B9284600F0FCFB68B92B
:102D4000284600F0D9FB014640B9284600F07DFB3B
:102D500020B9284600F0EFFB0028B5D0BDE8F0818F
:102D600001480068FFF784BF30070020F8B5FF2353
:102D7000054690F9177380F81733044655F8500B41
:102D80000E46154900F050FD3923062280212846C1
:102D900000F013FCF0B9206DF9B2FEF71CFFC8B9C2
:102DA000206DF1B2FEF717FFA0B9284600F0E8FB4E
:102DB00080B9802130230622284600F0FEFB014620
:102DC00040B9206DFEF707FF20B92846BDE8F8405E
:102DD00000F0D6BBF8BD00BF652C0000014B1868A1
:102DE000FFF7C4BF3007002010B5044654F8500B5D
:102DF00000F022FD01462046BDE8104000F025BB52
:102E000090F81813006DFEF7E6BE10B500F5467198
:102E10000446803000F00AFA30B994F8181320689C
:102E2000BDE8104000F00EBD10BD73B5044600684B
:102E300000F04CFD0546B8B904F18006B4F88830BE
:102E4000B4F886209B1A9BB2012B0DD90DF1060117
:102E5000304600F009FA30B9BDF80610206800F0DD
:102E6000FDFC0028EAD00546284602B070BD73B5C7
:102E70000446006800F036FD0546B0B904F180064E
:102E8000B4F88830B4F886209B1A9BB2072B0CD973
:102E9000082201A9304600F03AFA28B901992068C1
:102EA00000F0E6FC0028EBD00546284602B070BDD5
:102EB00013B504460DF10601803000F0D5F920B9B4
:102EC000BDF80610206800F0E5FC02B010BD13B597
:102ED0000822044601A9803000F019FA18B90199B6
:102EE000206800F0E1FC02B010BD13B504460DF1FE
:102EF0000601803000F0B8F920B9BDF8061020684E
:102F000000F0ACFC02B010BD13B50023044608224B
:102F100001A98030019300F0FAF918B901992068ED
:102F200000F0A6FC02B010BD13B5002304460DF15D
:102F3000070180308DF8073000F078F960B99DF80E
:102F40000730206853B994F812330BB100F062FCDB
:102F50002068002100F056FC02B010BD012100F0F5
:102F600051FC0028F8D194F81233002BF4D0024918
:102F7000206800F059FCEFE7652C000013B504460B
:102F80000DF10601803000F06FF920B9BDF8061090
:102F9000206800F03CFC02B010BD7FB500F1800657
:102FA0000C460DF10A0203A9304600F0C9F90546A6
:102FB000002847D1BDF80A207F2A46D82546039924
:102FC00055F8060BA2800BF0E9FA2946304600F0CE
:102FD0001DF90546B0BB4FF441732382A37C23F057
:102FE000070343F00203A37404F11001304600F01C
:102FF0000DF938BB04F11101304600F007F908BBA8
:103000000DF10701304600F011F9D8B902A9304698
:1030100000F00CF9B0B90DF10901304600F006F9E5
:1030200080B99DF807209DF8083043EA42039DF8D7
:10303000092043EA8203A27C03F0070322F007027F
:103040001343A374284604B070BD0625FAE70000B8
:1030500038B5044600680D4600F0D7FBE8B120689B
:1030600000F0E5FB0146D0B12046FFF796FF03468E
:1030700048B905F00F0384F816330A49206800F0B8
:10308000D8FB034668B11846FEF729FE29460246DA
:103090002046BDE83840FEF799BF0D23F3E7032330
:1030A000F1E738BD612D000030B500F1800487B034
:1030B000054602A9204600F0A9F820B99DF808307D
:1030C000082B02D0072007B030BD0DF109012046C2
:1030D00000F09CF80028F6D10DF10A0203A9204661
:1030E00000F02EF90028EED1BDF80A30102BE9D1FE
:1030F0000DF10A0204A9204600F022F90028E2D1CD
:10310000BDF80A30102BDDD10DF10A0205A92046C9
:1031100000F016F90028D6D1BDF80A30102BD1D115
:10312000059B0193049B00939DF80920039B9DF848
:103130000810286800F0E2FBC5E7F0B5013A044644
:1031400000260C20B2420AD995196D0800FB05F73C
:10315000CF599F4201D26E1CF4E72A46F2E700FBEA
:1031600006F288188A5893420BBFD0E90101002368
:10317000C4E90001C4E900332046F0BD10B50B4698
:10318000044603492322FFF7D8FF204610BD00BFA5
:10319000D4FC000010B50B46044603491222FFF789
:1031A000CCFF204610BD00BF78FE000010B50B46D6
:1031B000044603490322FFF7C0FF204610BD00BFAD
:1031C00050FF000010B50B46044603490322FFF7E9
:1031D000B4FF204610BD00BF74FF00000022C0E90C
:1031E0000022C0E902227047838803810022C28046
:1031F000827283817047002908BF002210B50160E8
:103200008280FFF7F1FF8388838110BDC388028924
:1032100010B55C1C94429FBF0268D35C0B70C388DE
:103220009BBF0133C3800620002010BD13B50C46A0
:103230000DF10701FFF7EAFF18B99DF8073013B940
:10324000207002B010BD012B0CBF23700620F8E7E0
:1032500013B50C460DF10701FFF7D8FF10B99DF823
:103260000730237002B010BDC288038930B5941CAA
:103270009C420BD80468A3185D78A35C43EA05233D
:103280000B80C3880233C380002030BD0620FCE7DA
:10329000B0F806C00389F0B50CF108049C421DD8B3
:1032A000D0F800E00EEB0C05AA786E782B791204AA
:1032B00042EA06221EF80C603243EE7842EA0662C9
:1032C0006E7943EA0623AE7943EA0643EE7943EA90
:1032D0000663C1E90023C4800020F0BD0620FCE79E
:1032E00037B5C38804460D4601890068C91A1844D9
:1032F00001AA00F037FA0028C1BFE388C018019B7B
:10330000E080D2BF062000202B6003B030BD10B596
:10331000C488038922449A42DDBF03681B190B60ED
:103320000620DCBFC280002010BD10B40389C48811
:103330001B1B9BB213805DF8044B1A46FFF7E7BFD7
:1033400073B50E460DF1060105461446FFF78CFFD6
:1033500048B9BDF8062031462846FFF7D8FF10B916
:10336000BDF80630238002B070BDC3888381038915
:10337000C381837AC3727047838982889A4281BFEE
:10338000C380C3890381C37A86BF837200200D2066
:10339000704738B504460D460068C9B2FEF71BFCFD
:1033A00028B92068290ABDE83840FEF714BC38BDAA
:1033B00038B504460D460068C9B2FEF70CFC88B962
:1033C0002068C5F30721FEF706FC58B92068C5F34D
:1033D0000741FEF700FC28B92068290EBDE83840F7
:1033E000FEF7F9BB38BD70B5D1B204460068164689
:1033F0001D46FEF7F0FB38BB2068C6F30721FEF739
:10340000EAFB08BB2068C6F30741FEF7E4FBD8B926
:103410002068310EFEF7DFFBB0B92068E9B2FEF795
:10342000DAFB88B92068C5F30721FEF7D4FB58B949
:103430002068C5F30741FEF7CEFB28B92068290EA6
:10344000BDE87040FEF7C7BB70BD13B50A46044621
:103450000621684600F0B3F9694682B22068FEF79B
:10346000CDFB02B010BD70B504460D4611F00F0142
:1034700018BF002300680EBF84F82410012184F8CF
:1034800024301646FEF7D4FB20682946FEF7A3FB3E
:1034900028B931462046BDE87040FFF7D6BF70BD61
:1034A00037B50D46114604460192FFF772FF38B951
:1034B000019A2068294603B0BDE83040FEF79EBB64
:1034C00003B030BD13B50446084601910BF09EFCD5
:1034D0004FF6FF72824228BF02460199206892B2DD
:1034E000FEF78CFB014628B9206802B0BDE8104009
:1034F000FEF771BB02B010BD10B590F8241003297F
:10350000044616D800EBC10104310068FEF753FBF6
:1035100070B901462068FEF75EFB48B90146206895
:10352000FEF759FB20B994F82430013384F8243095
:1035300010BD0D20FCE773B590F82410044611B9B6
:103540000D2002B070BD0139C9B20825042680F8EB
:10355000241015FB016101440068FEF7DAF9012827
:10356000EED994F82410023815FB0161ADF804007F
:10357000022320680DEB06022144FEF797F9E0E7ED
:1035800010B5044694F824302BB12046FFF7D3FF42
:103590000028F7D010BD2068BDE81040FEF700BA43
:1035A00010B500F1280104460068FEF704FB18B9C5
:1035B00094F8243084F8253010BD38B504461D46F3
:1035C000FFF751FF48B92046FFF7EAFF28B929461F
:1035D0002046BDE83840FFF738BF38BD10B500F1D0
:1035E000280104460068FEF7BAF918B994F82530A6
:1035F00084F8243010BD38B504460D46FFF7EEFFC1
:1036000050B901462046FFF720FF28B92946204639
:10361000BDE83840FFF719BF38BD1F2070470000D4
:1036200030B5194C002325688D4225D16568954237
:1036300022D1D0E90225C3F1200405FA04F4A3F154
:103640002001DA40224325FA01F10A4312F0010F6A
:10365000C3F12004A3F120020DD1012101FA02F2ED
:1036600021FA04F4224301FA03F3D0E900140B43D6
:103670002243C0E9003230BD0133DBB21F2B04F11D
:103680000C04D0D1F7E700BF98FF00002DE9F04F00
:103690000023214C93461F46012694F814C05D1C5C
:1036A000BCF1000F26D0E2688A4223D11F3BC5F14E
:1036B000200E26FA0EFE06FA03F343EA0E0306FA7C
:1036C00005FAD0E902796FEA0A086FEA030EBBF146
:1036D000000F18D04AEA070743EA0903C0E902735A
:1036E000D0E9003703EA080307EA0E07C0E900370C
:1036F00031B967461E2D2B4604F10C04CDD14FB1D4
:103700000020BDE8F08F08EA07070EEA0903C0E9C8
:103710000273EDE70720F4E798FF000030B5104B87
:1037200000220132D2B21F2A03F10C0301D1002082
:1037300015E01C7A002CF4D01C688C42F1D1D0E941
:103740000235C2F12004A2F1200123FA02F005FAA9
:1037500004F4204325FA01F1084300F0010030BDD4
:1037600098FF00000023F0B5054618468842C0EBDC
:10377000C0070DD005280BD02E5C06F07F04BC409E
:103780002343340600F10100F0D402B11360F0BD10
:103790004FF0FF30FBE77F280BD9B0F5804F0AD3FD
:1037A000B0F5001F09D3B0F1805F34BF04200520BD
:1037B000704701207047022070470320704738B5DA
:1037C00004461046FFF7E7FF81420CDA38BD63F08C
:1037D0007F036354D20901318D42D3B2F7D103F094
:1037E0007F036355F2E70021451EF5E700F0BEB800
:1037F0000120704700F0D0B800F0CCB80048704706
:103800000C010100143000F069B9007D70471430DC
:1038100000F090B9037D13B1024801F021BB0D20E7
:10382000704700BF38070020143000F08DB9806B5E
:103830007047143000F0A4B9243000F03BBA1430C3
:1038400000F0B8B908B5037D23B1034801F069FB66
:10385000002008BD0D20FCE738070020037D13B1D0
:10386000024801F061BB0D20704700BF38070020FF
:10387000037D07B553B16846012200F0C6F904483C
:10388000694601F05FFB03B05DF804FB0D20FAE729
:1038900038070020037D13B1024801F05DBB0D2005
:1038A000704700BF38070020037D07B553B1684655
:1038B000012200F0AAF90448694601F05BFB03B05D
:1038C0005DF804FB0D20FAE73807002008B5037DFA
:1038D00023B1034801F058FB002008BD0D20FCE790
:1038E0003807002008B5037D23B1034801F04FFBE2
:1038F000002008BD0D20FCE738070020143000F040
:1039000075B9407D7047143000F003B9C08A704724
:10391000143000F0F1B82A307047143000F000B9CC
:10392000008D704701F0FCB90120704710B50446C6
:10393000FFF75EFF20B1201DBDE8104000F0ACB8DD
:1039400010BD38B504460025043000F089F8C4E9FC
:10395000025504F1100000F045F8214604F114006E
:1039600000F0ACF884F88850204638BD10B5064CFD
:1039700094F888302BB92046FFF7E3FF012384F841
:103980008830014810BD00BF38070020004870474C
:103990003807002001F04AB990F8883010B5044685
:1039A0005BB1002380F88830243000F0BDF904F1C9
:1039B0001000BDE8104000F001B810BD034A1388A4
:1039C00003B9FEE7013B1380704700BFC807002022
:1039D00031B16FF00043994208BF01210160704787
:1039E0000121FBE737B50D4C23884FF6FF72934258
:1039F000054600D1FEE753B904210DEB010001F0AB
:103A0000ABF800B1FEE701990548FFF7E1FF238815
:103A100028460133238003B030BD00BFC807002013
:103A2000CC070020026848F24E33A2FB032313EBBD
:103A3000520244BF22F00042013202601046704739
:103A4000034B1B8803B9FEE70248FFF7EBBF00BF3B
:103A5000C8070020CC0700200260002242607047A7
:103A60000022026070470000036823B90160044827
:103A70004960FDF71FBC5A684A6059600160704791
:103A8000380700204368014613B90248FFF7ECBF2E
:103A9000704700BF3C07002038B50025046805606A
:103AA00054B1606884421CBF43686360036845602A
:103AB00008BF00249847F3E738BD000010B5064A58
:103AC0000023C0E90023C0E902330446103000F0AF
:103AD000AFF8204610BD00BF000BFFFF38B504460D
:103AE0000D46103019B100F009F910B138BD00F0E1
:103AF0001BF925700020F9E738B5037804460D4618
:103B00002BB1103000F0DAF86580002038BD0D20B0
:103B1000FCE7037813B14170002070470D20704717
:103B200008B5037823B1103000F0D4F8002008BDA8
:103B30000D20FCE708B5037823B1103000F0C4F87D
:103B4000002008BD0D20FCE738B5037804460D467B
:103B500033B14178103000F0FBF800B9656038BD32
:103B60000D20FCE710B444682CB122B92346034869
:103B70005DF8044B18475DF8044B70473807002088
:103B800038B5037804460D462BB1103000F031F9FA
:103B900000B9A56038BD0D20FCE7000038B5856888
:103BA00004461DB10248A8470023A36038BD00BFEA
:103BB0003807002038B51D46037804462BB1103075
:103BC00000F026F900B9E56038BD0D20FCE70000E3
:103BD000037810B504462BB1C3681BB1024898475F
:103BE0000023E36010BD00BF3807002013B5047840
:103BF0004CB1059C0194049C0094103000F0D8F95D
:103C0000002002B010BD0D20FBE712B1012A05D043
:103C100070470B6803604B684360704701F108030D
:103C2000013813F8012D00F8012F8B42F9D17047AC
:103C300073B51E4E01910446304601F06BF94FF604
:103C4000FE730025A38047F60173E3812070657041
:103C500065802561304601F049F90199606104F100
:103C6000180000F0E3F92346114A84F85450C4E9DF
:103C7000075543F8582F29462366C4F80650C4F860
:103C80000A50102204F124000AF0B0FC2946102248
:103C900004F134000AF0AAFC1022294604F1440081
:103CA0000AF0A4FC204602B070BD00BF3807002017
:103CB000A13F0000007840F004007047014801F087
:103CC0003FB800BF380700208180014800F0CAB922
:103CD0004907002007B50A68C0F806204A68C0F8FE
:103CE0000A2001226846FFF790FF0348694600F06A
:103CF000B3F903B05DF804FB49070020437810B521
:103D0000044663B9074801F08BF850B9054801F043
:103D1000A7F830B96378012B01D00123637000202C
:103D200010BDFEE73807002010B50446583000F0FB
:103D300077FA064801F094F830B9044801F07AF8AF
:103D400010B9637803B1607010BD00BF3807002060
:103D500010B50446044801F091F820B96378022BAD
:103D60001CBF0223637010BD38070020C36970B503
:103D700004460D4616462BB121B11AB9026A3146E6
:103D8000284698473246294604F11800BDE870409D
:103D900000F04EB94378032B10B504461FD1436998
:103DA0009A7C42F002029A740278D2060DD504235E
:103DB0006370E3691BB1226A6069012198476169F8
:103DC000074801F06FF850B1FEE79979044801F017
:103DD00055F800B1FEE76378042BEAD0E7E710BDA1
:103DE000380700204378032B1CBF03234370FFF7E1
:103DF000D1BF427810B542B1033A022A05D9002456
:103E00004480FFF7EFFF204610BD0D20FCE7704710
:103E1000437810B504467BB1033B022B0CD90378E1
:103E20009B070BD5064801F0B5F86378052B01D048
:103E300005236370002000E00D2010BD0C20FCE77E
:103E4000380700204378022B1CBF02234370183030
:103E500000F0FCB810B503789B07044600D5FEE7D8
:103E6000104801F047F87F2806D094F90F307F2BD7
:103E700001D0834200DAE07300F0B7FC2369C01A76
:103E8000002808DAE16D04F158004FF4FA32BDE879
:103E9000104000F0BFB994F90F102046BDE8104063
:103EA000FFF7D0BF38070020007880F00400C0F38F
:103EB000800070472DE9FF411D46044658300E46EC
:103EC000904600F0ADF90E2D37D004D8002D34D037
:103ED0000B2D0BD0FEE70F2DFCD10021B37C9B07EF
:103EE00004D5B27904F1180000F0A8F80023A370FB
:103EF000E37825B32046FFF7D7FF074620B1777C4C
:103F00009F4294BF0027012704F11800CDE9003734
:103F100042462B463146039000F091F8039887B152
:103F2000E3780133E370B37C204643F00103B374BC
:103F300004B0BDE8F041FFF755BF0121CEE72F46A1
:103F4000E2E76378022B1CBF0223637042462B46D4
:103F5000314604B0BDE8F04100F072B84378042B5C
:103F600010B5044607D0052B12D0032B14D1BDE8A1
:103F70001040FFF70FBF43690848997900F07EFFB2
:103F8000616920460E23BDE810400022FFF792BF72
:103F9000BDE81040FFF75EBF10BD00BF380700202E
:103FA00008B5FFF7F3FCBDE808402430FFF7D6BFA3
:103FB0002DE9F0430829DDE907CE04460D4603D07C
:103FC00011F0EF0F28D0FEE780F854201E4600F1D4
:103FD000240803F1100930687168474603C70836A2
:103FE0004E45B846F7D1664604F134080CF1100985
:103FF00030687168474603C708364E45B846F7D162
:10400000764644340EF1100830687168274603C7BD
:10401000083646453C46F7D1CDE907CE2946024849
:10402000BDE8F04300F04EB83807002070470000AC
:104030000148FFF797BD00BF4C070020704770474D
:104040000148FFF7ABBD00BF4C0700200148FFF758
:10405000BFBD00BF4C070020014800F07ABE00BF82
:1040600038070020014800F077BE00BF3807002065
:1040700090F8883013B1123000F0ECB8704790F827
:10408000883013B1123000F0EBB8704710B490F8DC
:10409000884024B15DF8044B123000F0E7B85DF8B9
:1040A000044B704790F8883013B1123000F0E4B838
:1040B000704700000048704700F8FF0708B5FFF799
:1040C000F9FF08BD70474368496810B59C1A8A1A01
:1040D000D20FB2EBD47F08BF5B1A4FEAD47008BF8F
:1040E000D80F10BD70B505680C4625B9BDE8704005
:1040F0004B68084818478B6898476A68831A002BF2
:1041000001462368B8BF121ABDE870400148A8BF35
:10411000002218473807002038B50C461146A2681F
:10412000944206D003689C4204D10260FFF7DAFF94
:10413000A46038BD002BFBD01A469B68002BF7D03B
:104140009C42F9D1A3689360F2E72DE9F0479368A8
:1041500005460C4616469847324681462146284673
:10416000FFF7DAFFD5F800A04FF00008574647B137
:104170004A4639462046FFF7A6FF10B9B846BF6841
:10418000F5E7B8F1000F08D1C4F808A031462C605B
:104190002846BDE8F047FFF7A5BFD8F80830A36070
:1041A000C8F80840BDE8F08770B5066804460D46BB
:1041B0007EB18B6898477368C01A002809DB2046D7
:1041C0002A463146FFF7A8FF33683046BDE8704005
:1041D000184729462046BDE87040FFF783BF00001E
:1041E00010B50446FFF704FB30B104F108000349A1
:1041F000BDE81040FFF7D8BF10BD00BF4C01010063
:104200004160024A01460248FFF79FBF400101009A
:1042100044070020002A00DAFEE71144FFF7F0BF50
:104220000146024A0248FFF777BF00BF4001010084
:104230004407002010B50446FFF7DAFA30B104F164
:104240000C000349BDE81040FFF7AEBF10BD00BF32
:10425000400101000148FFF789BD00BF5C07002055
:104260000148FFF7D4BD00BF5C0700200148FFF7FD
:1042700021BE00BF5C0700200148FFF7E3BD00BF7F
:104280005C0700202DE9F048204C460B46EAC14669
:104290004D0BA6FB046704FB05774FEA177C340F30
:1042A00044EA071443F6095E4FEA4C2646EAD45620
:1042B0006702A4FB0E45021B0EFB0C5561EB0503C8
:1042C00013480021994208BF904205D2114B124A6F
:1042D000124890210AF0E4F8114940F23144544365
:1042E000A2FB01BC01FB03444FF0FF311BEB0101BA
:1042F000A44447F6FF724CEB0202D00BC0194FF0FA
:10430000000146EB0101BDE8F08800BFD07B6308E7
:10431000452C16005801010047020100660101000A
:104320007B2DE8BD00F1402000F50030002382B075
:10433000036003680193019B02B07047264B37B5B9
:1043400019460120D3E84F2FD2B28DF807209DF8EF
:10435000072062B1BFF32F8F204B1A68204B12B990
:104360001A68D20736D518680230400830E0C3E832
:10437000420F002AE6D11B4B0222C3F80823BFF3E9
:104380005F8F03F58273164A1B684BB113680133C4
:104390001360BFF35F8F4FF48270FFF7C3FF0123F9
:1043A0001068104C022501304008C4F80453BFF3D4
:1043B0005F8F00240C705BB11368D90705D40A4BDA
:1043C0000A4A0B48EA210AF06BF8136801331360BC
:1043D00003B030BD1868C8E7D1070020044102408F
:1043E000D407002000400240D70101006202010012
:1043F000EF0101002DE9F04106460C46FFF79EFF54
:104400000546BFF35F8FDFF82080D8F80475BFF34F
:104410005F8FFFF793FF3060854218BFD8F80475AF
:104420002760BDE8F08100BF0040024008B5094B9D
:10443000020103EB0010084B4168C3F84813C16840
:10444000C3F808130089FFF76DFF044B002199544E
:1044500008BD00BF7802010000400240E0070020D4
:104460002DE9F843314CDFF8CCC0174604EB071EAA
:10447000DDE90832DEF80C60CCF808639842DEF81B
:104480000460CCF844634FEA07151E463ED9A0EB02
:10449000030CBCF1000F39DA003342F1FF329446CD
:1044A00000260A184FF0000343F1000316EB020840
:1044B0004CEB030937B94FF47A7303FB09F2A8FBFD
:1044C0000389914440464946FFF7DCFE43F6095311
:1044D000A0FB038903FB019940F2FF1320F07F4604
:1044E000002118EB030049EB0101C7B1400A40EA83
:1044F000C150490A0E4B0F4A2B44C3E902016359CC
:1045000003F5A87342F82360BDE8F883B042C6D231
:10451000361A002EC3DA003342F10102BFE74FF42E
:10452000FA22002309F040FEE4E700BF7802010010
:10453000E00700200040024073B5064601A9684626
:10454000FFF758FF019843F6095140F2FF1200238C
:10455000E1FB0023540A44EAC3545D0A009A084B65
:10456000E3FB024546B9204629464FF47A72002300
:1045700009F01AFE04460D462046294602B070BDD9
:104580000080841EF8B51A4D05EB001304460601A1
:1045900018890F46FFF7C6FE2046FFF7CDFF0246FB
:1045A0000B463FB913493144D1E902018B4208BFA0
:1045B00082421CD33544104B6A68C3F84823022C4E
:1045C000EA68C3F808230AD0032C0CD0094A012357
:1045D00093550A4A1370BDE8F84000F028BFBDE8C3
:1045E000F84005F0D1BCBDE8F84004F0D3BFF8BDF9
:1045F00078020100E007002000400240D0070020C0
:104600002DE9FF410746884602A803A91646FFF791
:10461000F1FE039843F6095140F2FF120023E1FB3B
:104620000023540A44EAC3545D0A029A294BE3FB6F
:10463000024546B9204629464FF47A72002309F014
:10464000B3FD04460D463246CDE9004541463846A5
:10465000FFF706FF204B039AD3F804359A4203D0A4
:1046600003A902A8FFF7C6FE039B43F60950991C55
:1046700040F2FF120023E0FB0123540A44EAC35432
:104680005D0A029A134BE3FB024546B920462946D0
:104690004FF47A72002309F087FD04460D460F4A55
:1046A00002EB0612D2E902239D4208BF94424FEA70
:1046B000061107D301213046FFF764FF40BF04B065
:1046C000BDE8F081064B0B44DA68034BC3F80423C2
:1046D000F5E700BF0080841E00400240E007002094
:1046E0007802010038B52A484022002109F07EFFF7
:1046F000284B00201860284B1870284B00240025F8
:10470000C3E9004501F0F0F801F02CF90028FBD0D6
:10471000234BC02283F824231022C3F884215A603B
:10472000204A0023C2F808354FF48270FFF7FAFDE3
:104730000223C2F844334FF4A070C2F80433FFF7E9
:10474000F1FD4FF48033C2F848334FF4A270C2F841
:104750000833FFF7E7FD4FF40033C2F848334FF456
:10476000A470C2F80833FFF7DDFD4FF48023C2F8D0
:1047700048334FF4A670C2F80833FFF7D3FD4FF467
:104780000023C2F84833C2F808330123136038BD50
:10479000E0070020D4070020D1070020D807002020
:1047A00000E100E0004002402DE9F04100260B4FFF
:1047B0000446B0460A4D87F800802B781BB120468E
:1047C0002E70FFF70DFD2B7C1BB120462E74FFF7DA
:1047D00031FD3B78002BEDD1BDE8F081D007002002
:1047E000E00700200120FFF7A7BE08B5FFF7FAFF9A
:1047F0004FF47A72002309F0D7FC08BD0846114631
:104800000022FFF7FDBE0020FFF710BE08B5FFF73E
:10481000E9FF08BD084611460122FFF7F1BE01205D
:10482000FFF704BE70477047044B4FF48022C3F873
:104830000823BFF34F8FBFF36F8F704700400240D4
:10484000024B4FF48022C3F804237047004002401B
:10485000FFF7DCBF1F2070470222FFF7D1BE022006
:10486000FFF7E4BD2DE9FF48154F164E40F2FF1447
:10487000002502A903A8FFF7BDFD029A43F60953DC
:1048800020462946E3FB0201400A039B40EAC1504F
:10489000490AE7FB03018C4683460322CDE900BCAD
:1048A0003E215846FFF7DCFD4FF40023C6F80433E1
:1048B000D6F80435029A9A42DBD104B0BDE8F088FC
:1048C0000080841E0040024037B5044603200D4698
:1048D000FFF732FE0322CDE9000129462046FFF70B
:1048E000BFFD034B4FF40022C3F8042303B030BDD7
:1048F000004002400320FFF799BD000008B5224B9D
:1049000001221A604FF4A070FFF70CFD1F4A4FF40C
:104910008033C2F848334FF4A270C2F80833FFF76F
:1049200001FD4FF40033C2F848334FF4A470C2F8CD
:104930000833FFF7F7FC4FF48023C2F848334FF4F5
:10494000A670C2F80833FFF7EDFC4FF40023C2F85D
:104950004833C2F808330223C2F808334FF4827098
:10496000C2F84833FFF7DEFCFFF7C4FF084B102204
:10497000C3F88420C3F88421002283F82423BDE8EF
:10498000084000F0DBBF00BF04400240004002408E
:1049900000E100E0004870474C410240014B986B39
:1049A000704700BFE0070020114B1B6870B52BB1AA
:1049B000104B0222C3F80823FFF7C0FC0E4D0D4E2A
:1049C0000024D6F80423EB681A420AD02B8903F19D
:1049D000402303F500331B681BB10021E0B2FFF751
:1049E000D1FD0134042C05F11005EAD170BD00BFE2
:1049F000044102400040024078020100064B0022C0
:104A00001A6082B01B680193019B044B0122C3F81A
:104A100004231A6002B0704700D1004000D000406B
:104A2000144B1A6813B51AB3134AD2F80813C907FE
:104A30001ED5002119601B680193019BD2F808451F
:104A40000E4B0F4A19681068091A7F2906D8196891
:104A5000481C186001F07F010A4844541B68126822
:104A60009B1A7F2B81BF044A0123C2F8083353608D
:104A700002B010BD00D1004000D00040A8080020C6
:104A8000A40800202008002070B58022234D244C6B
:104A90002448002109F0AAFD234900232B6023604C
:104AA000C02381F80D334FF40053C1F880310B60FF
:104AB0001E49D1F8040540F00100C1F80405D1F801
:104AC000000220F00100C1F80002FFF797FF2B461B
:104AD000224611681868091A0329FAD9116818685A
:104AE000091A032917D90F4D0424002016681968E4
:104AF0008E421DBF19684E1C01F07F0100211CBFB2
:104B0000695C1E600002013C40EA0100EED1BDE894
:104B100070400AF00BB90020F9E700BFA40800209C
:104B2000A80800202008002000E100E000D000409C
:104B3000074A0123C2F808335360064B4FF4005272
:104B4000C3F88020C3F88021002283F80D2370472A
:104B500000D0004000E100E02DE9F047234E33781B
:104B600003F0FF042BB1224B224A2348C72109F04E
:104B700097FC01233370002836D0002934D0DFF8A9
:104B800080801E4F2546C146D8F800403B68E41A95
:104B9000E4B24B1B9C42C8BFDCB2F4B1DFF864E066
:104BA00000EB050C0022D9F800A03B689A451EBF17
:104BB0003B6803F1010A03F07F0302F101021ABF0F
:104BC0001EF80330C7F800A0002394420CF8013B04
:104BD000E9D8FFF713FF2C44A5B28D42D4D30020AF
:104BE00000233370BDE8F0870720F9E7A008002014
:104BF000B802010026030100CC020100A408002035
:104C0000A808002020080020704770474FF080431C
:104C1000044AD3F8001411604FF0FF32C3F80024A7
:104C2000704700BFAC0800207047000008B500F0D6
:104C30000AFE0A4B187018B1094B04221A6008BD0D
:104C4000BFF34F8F0749084BCA6802F4E062134371
:104C5000CB60BFF34F8F00BFFDE700BF501A0020AD
:104C6000AC08002000ED00E00400FA050B4B1B68C7
:104C7000D9070BD49A070BD459070BD41A070BD4B6
:104C800013F4F81F14BF062000207047012070475E
:104C9000082070470220704703207047AC080020AE
:104CA00070470000012303FA00F0084A82B0C043B5
:104CB00052E8003F0193019B03400193019B42E8AE
:104CC00000310029F4D102B0704700BFD4080020A1
:104CD000074A82B052E8003F0193019B23F0010391
:104CE0000193019B42E800310029F3D102B07047E3
:104CF000D40800200123094A82B003FA00F052E8E8
:104D0000003F0193019B03430193019B42E8003163
:104D10000029F4D102B000F08ABB00BFD408002003
:104D2000F4230B70CE234B7036238B704FF08053DF
:104D300082B01A6E5B6EC1F80330CA7102B0704760
:104D400007B501A8ADF8041004F0AEFC03B05DF89F
:104D500004FB084604F0AABC07B501A8ADF804108E
:104D600004F0A6FC03B05DF804FB00000D4B01222B
:104D700010B51A700C4B0D4A1A600D4A00231370BF
:104D80000C4A1824184604FB03F10133102B8850F9
:104D9000F9D109481822002109F028FCBDE810408B
:104DA00004F093BCCA080020600A0020790A0020A1
:104DB000D8080020E0080020B008002008B504F062
:104DC000C9FC04F0A7FC024B00221A6008BD00BF1A
:104DD000D408002008B50E4B1B78A3B904F0AEFC34
:104DE0000238052808D8DFE800F0100305030505A0
:104DF000022008BD0320FCE7064B074A07484FF492
:104E0000957109F04DFB0020F3E70120F1E700BFA9
:104E1000CA080020CA070100BD03010037030100D2
:104E2000034B1A7812B10020187070470D2070479C
:104E3000CA08002010B5084C22784AB9FFF7CAFF0B
:104E4000012803D0054B1B68DB0703D50123237022
:104E5000002010BD0D20FCE7CA080020D408002067
:104E600008B504F077FC18B1FFF732FF002008BD49
:104E7000FFF72EFFFFF73EFFF8E7000008B50846F2
:104E800004F0F8FB064B93F9000004F004FC04F076
:104E900064FCFFF71DFF00280CBF0D20002008BD9B
:104EA000C908002070B50B688A8803F8012C0C46ED
:104EB0000646887904F0DEFBA17C206811F002012F
:104EC00000F1FF300ED004F0ACFC0125FFF700FF2D
:104ED00021463046FFF7D3F815B90220FFF70AFF45
:104EE000002070BD04F03FFC0546EFE70048704726
:104EF000600A002008B5064B4FF4206043F0010320
:104F0000984704F05DFCBDE8084004F05BBC00BFBE
:104F1000500401001B20704704F065BC084604F0F3
:104F200064BC084604F063BC07B5ADF8041001A8E2
:104F3000002104F05EFC00280CBF0320002003B019
:104F40005DF804FB08B50846012104F052FC002876
:104F50000CBF0320002008BD07B5ADF8041001A860
:104F6000002104F04FFC00280CBF0A20002003B0F1
:104F70005DF804FB08B50846012104F043FC002855
:104F80000CBF0A20002008BD002004F03EBC012018
:104F900004F03BBC4FF47A7310B55A430A4C0B4BE8
:104FA000226008461970FFF793FE04F063FB206847
:104FB00004F0E5FB20B10520FFF774FE002010BDD2
:104FC0000520FFF797FEF9E7D0080020CC08002065
:104FD00010B50C4621B104F060FB2070002010BD1C
:104FE0000720FCE708B5034B0846197004F053FB93
:104FF000002008BDC908002013B50C4649B101A81E
:1050000004F00DFC9DF805305E3B2370002002B0DB
:1050100010BD0720FBE711F15E0F13B5084610DB4A
:105020000024ADF805408DF807408DF8044004F0E9
:1050300045FB8DF8050001A804F0EAFB204602B00C
:1050400010BD0720FBE70000F8B500263F4C0546E1
:10505000374623684BB1284600222146FFF708F85F
:1050600020682760013804F08FFB0136102E04F110
:105070001804EED1364C23689F0714D5354E012015
:10508000FFF710FE32683449002A28464FF000032B
:1050900018BF3246FEF7FAFF306820B1013804F03D
:1050A00073FB0023336023685E0708D50220FFF7F7
:1050B000F9FD29490F2300222846FEF7E7FF236860
:1050C000180708D50320FFF7EDFD23490E23002222
:1050D0002846FEF7DBFF2368D90608D50420FFF732
:1050E000E1FD1E4B00211A782846FEF7C1FF236818
:1050F0005A0608D50620FFF7D5FD194B284693F927
:105100000010FEF7CFFF256815F0010506D004F06A
:1051100021FB98B10020FFF7C5FD002523689B0601
:1051200011D5104B187804F0A5FA0F4B186804F04D
:1051300026FB28B9BDE8F84000F079B90125EDE774
:105140000520FFF7AFFD002DF4D1F8BDE0080020E9
:10515000D4080020B0080020600A0020D8080020F1
:10516000CB080020CC080020D00800202DE9F74F04
:10517000DFF8B890934604468A461F460026182258
:105180004D4602FB06F353F8091000293AD109EB0A
:10519000030818224046019309F028FA019B621C7B
:1051A00049F803202378A8F8043088F810A088F87C
:1051B00011B004F06EFA88F806006278DFF87080AB
:1051C00012F0200228D1182303FB0655AB7C62F3B2
:1051D0000003AB74FFF71AFB21780646384604F04B
:1051E00070FA0446FFF7FEFA361B801B61F10001DE
:1051F0000023C5E9020188F8003003B0BDE8F04F94
:1052000000F015B90136102EBBD1054B054A0648F2
:1052100040F21F3109F044F998F80020D3E700BFAD
:105220008F030100D103010037030100E0080020D3
:10523000C8080020013808B5104B082816D8DFE848
:1052400000F0050F111313131305130012221A7027
:105250000B4B00221A700420BDE80840FFF74ABD3E
:105260001122F4E71622F2E70122F0E7054B064A85
:1052700006484FF4567109F013F900BFD808002012
:10528000C8080020CA070100F3030100370301002A
:105290004378024AC3F3001313707047C808002014
:1052A00010B50E4C844206D00D4B0E4A0E484FF4FA
:1052B0005A7109F0F5F80D4C29B92160BDE810408C
:1052C0000120FFF717BD481C20600978A1802274D7
:1052D000637404F0DEF9A071F0E700BF780A0020E3
:1052E000A50301000D04010037030100B0080020F0
:1052F00008B50F4B834206D00E4B0F4A4FF45F7137
:105300000E4809F0CDF8013906290CD8DFE801F084
:1053100004090904090404000220BDE80840FFF75D
:10532000E9BC0320F9E7064B034A40F28E31E7E778
:10533000780A0020A50301002804010037030100BA
:10534000CA07010008B504F0B5F9034B1870BDE8B1
:1053500008400620FFF7CEBCCB0800206FF06300AA
:1053600070477047704708F0CDBE000010B50C4C78
:1053700000F068F8FFF722FDFFF756FC22780AB923
:10538000FFF743FC207800F058FAFFF7D1FBFFF756
:10539000B5FA00F0B1F8BDE81040002008F0F4B80C
:1053A000501A002010B5144C23780BB1FFF7DEFF24
:1053B000124B134913480122C3F8402508F0D8F8CE
:1053C000002008F0DFF800F077FA00F093F8FFF71C
:1053D00089F9FFF759FB23780BB9FFF715FC207803
:1053E00000F026FAFFF712FCFFF7C0FC00F020F8EF
:1053F0000023237010BD00BF501A002000E00140C0
:1054000003E1000001E10000014B1878704700BF84
:10541000501A002010B50446FFF716FE00F011FAEE
:1054200000F016F82046BDE81040FFF7BDB9704700
:10543000034B00221A60A3F2045301221A60704742
:1054400004C50040014B01225A60704700C0004073
:105450001F4B2DE9F7431F4CD3F8002125688AB173
:105460000022C3F80021D3F800210192019AD3F859
:105470000825D3F80835920544BF6FEA83536FEAD5
:1054800093532360FFF7AEF9134B1A680FF23809F4
:10549000D9E90089861A5A6861EB0207B94508BF45
:1054A000B0453FBF0A4A01261660C3E900012368E0
:1054B000AB4204D003B0BDE8F04304F0F3B803B04E
:1054C000BDE8F083AFF3008080C3C9010000000095
:1054D00000C00040000B0020F80A00207047704711
:1054E000034B18680028B8BF033040F387007047AB
:1054F000000B002000F002B800F00EB808B5012142
:10550000002000F03FF80028A2BF024B01221A70D1
:1055100008BD00BF040B0020014B00221A70704729
:10552000040B002010B5114C114AA2610223C4E9FA
:105530000433104BE361A2644FF400730E4A0F4929
:105540002362E26400231022E01DA3626362E3622F
:10555000A3656365E365226509F050FC08492046B0
:1055600009F04CFC2023A37110BD00BF541A002089
:1055700056040100150B0020050B00205F040100FC
:105580006304010070B50C4D2B7804460E460BB930
:10559000FFF7C8FF2B69A3420BD9002000F068F980
:1055A000182000FB04540020E66200F063F900209C
:1055B00070BD4FF0FF30FBE7541A00200838062872
:1055C00014D8DFE800F0060D10131313040001F0E7
:1055D00011BF074B00221A84064B01221A7570472F
:1055E000044B0022FAE7034B01225A75704700BFB3
:1055F000180D0020A00F0020FFF719BF07B50B48BA
:1056000001AA012103F046FB68B9019840B1FFF7F8
:10561000ECF8074B1B69C01A0A2894BF0020012030
:1056200003B05DF804FB0020FAE700BFF4040100BA
:10563000A00F0020012910B514D0022907D081B98C
:105640000A4C0123237603F0EEFAA06009E0084932
:1056500008484FF4007203F0EBFAFFF7C6F8034B6B
:10566000186110BD014BD975FBE700BFA00F0020EA
:10567000A00D0020F404010008B51C2200211548EB
:1056800008F0B4FF02F03CFD134801F0EDFD30B12D
:10569000124B134A40F21311124808F001FF02F0B6
:1056A00063FD20B10D4B0E4A40F21711F4E70E488E
:1056B00001F0BCFE20B1094B094A4FF48E71EBE7B3
:1056C00001F07EFE20B1054B054A40F21F11E3E7D1
:1056D00008BD00BFA00F0020180501006A040100EA
:1056E000E60401007D040100F404010008B500F0A7
:1056F00093FF58B101F090FE02F064F90028FBD14D
:1057000001F020FFBDE8084001F022BE00F07AFF62
:105710000028F5D001F06EFEF2E70000024B0022F7
:105720009A751A609A807047A00F002010B502F099
:1057300049F90028FBD1274C237B0BB1237DDBB239
:10574000627B03F001039A4206D063737BB300F0DF
:1057500059FF08B901F04CFE637D33B10023637536
:1057600000F050FF08B101F047FE237E7BB1A16835
:1057700029B1194889B2FBF7A4FE0023A36016499A
:1057800016484FF4007203F053FA00B920762368EC
:10579000B3B1FFF733FF98B1A28821680F4803F037
:1057A00021FA18B90123A3752060A08010BD00F074
:1057B00033FF10B101F030FECEE701F01BFECBE766
:1057C000E37D002BF2D00023E375A375BDE8104004
:1057D000FBF76EBEA00F0020A00D0020F404010016
:1057E000024B01221A730020704700BFA00F002057
:1057F00070B50D4CA37D05460E4683B9236873B979
:10580000FFF7FCFE10B92560A68070BD0748324640
:10581000294603F0E7F9012318B9A375F5E7052038
:10582000F3E71846F1E700BFA00F0020F4040100E1
:1058300008B9FFF721BFFFF771BF08B9FFF756BFDF
:105840007047FFF773BF01207047000072B6024A2D
:105850001368013313607047BC0F0020034A1368BC
:10586000013B136003B962B6704700BFBC0F002054
:10587000FFF7ECBFFFF7F2BF38B5074C051E04F188
:10588000080318BF1C4623682BB11A6822605B68A6
:1058900028469847F7E738BDC80F002020B9054BC8
:1058A00001225A70FFF7E8BF012802D1014A907027
:1058B000F8E77047C00F002038B5094C23786BB962
:1058C00008486360A3602361E36000F091F8054637
:1058D00000F09AF801232370284638BD8525FBE7A0
:1058E000C00F00209D58000038B5134CA378054622
:1058F00003F0FF0073B115B16B68012098470020D9
:10590000FFF7B6FFE3680133E3600020BDE83840ED
:10591000FFF7B0BFFFF7ACFF25B1226913463BB9D3
:105920002A602561E368002BECD100F083F8E9E7F9
:105930009D42F7D01B68F2E7C00F002038B5084C35
:105940000020FFF795FFE368013BE360E56815B9C8
:1059500000F082F8A570BDE838400020FFF78ABF4C
:10596000C00F00204FF08043D3F81804C0F300406C
:105970007047000038B5134C6378054603F0FF000C
:1059800073B115B16B68002098470020FFF770FFD6
:105990006368013363600020BDE83840FFF76ABFE9
:1059A000FFF766FF25B1A26813463BB92A60A560E0
:1059B0006368002BECD100F05BF8E9E79D42F7D07B
:1059C0001B68F2E7C00F002038B5084C0020FFF735
:1059D0004FFF6368013B6360656815B900F05AF8D2
:1059E0006570BDE838400020FFF744BFC00F0020BD
:1059F000044A137923B90121106091801846704739
:105A000085207047D40F0020084B1A68D2075FBF6B
:105A1000E02283F8002301221A604FF08042012324
:105A2000C2F81835024A1370704700BF00E100E069
:105A3000CC1A0020074B00221A6082B01B68019329
:105A4000019B4FF080430222C3F8042301229A6095
:105A500002B0704704010040044B01221A604FF06D
:105A60008042D2F81834DB03FBD470470C000040AE
:105A7000074B00221A6082B01B680193019B4FF014
:105A800080430122C3F804231A6002B0704700BFAC
:105A900000010040074B01221A604FF08042D2F80B
:105AA0000C3403F00113B3F1011FF8D0024B0022B4
:105AB0005A71704704000040D40F0020154B07B501
:105AC0001A687AB100221A601B680093009B4FF09D
:105AD00080430122C3F808230F4B587910B95A713B
:105AE0001B6898470D4B1A6882B100221A601B6828
:105AF0000193019B4FF080430222C3F80823064B19
:105B00001B68012003B05DF804EB184703B05DF893
:105B100004FB00BF00010040D40F0020040100403E
:105B200000F1804382B01A68002A14BF01200020CF
:105B300004D000221A601B680193019B02B07047D9
:105B40000E4B1A78C2B902784FF08041C2F340027E
:105B5000C1F88025027802F00102C1F87825084AD0
:105B60001168C9075FBFE02182F8001301211160AD
:105B700001221A700020704785207047CD1A00203E
:105B800000E100E0014B02681A607047E40F00205A
:105B90004FF080434FF46072C3F8042370474FF016
:105BA00080434FF46072C3F808237047014B002212
:105BB0001A607047E40F00204FF0804310B5D3F80F
:105BC0000443620707D54FF48470FFF7A9FF10B1B3
:105BD0001E4B1B689847A30608D54FF48A70FFF741
:105BE0009FFF18B11A4B00201B689847600608D524
:105BF0004FF48C70FFF794FF18B1154B01201B6810
:105C00009847210608D54FF48E70FFF789FF18B129
:105C1000104B00201B689847E20508D54FF49070A0
:105C2000FFF77EFF18B10B4B01201B689847A305B7
:105C30000AD54FF49270FFF773FF28B1054BBDE80A
:105C400010401B680220184710BD00BFDC0F002069
:105C5000E00F0020E40F002008B5FFF7ADFFBDE81E
:105C60000840FFF72BBF00F1804000F51C300123F6
:105C70000360BFF36F8FBFF34F8F7047064B1B68F6
:105C8000082B01BF054B1868B0FA80F0400918BF17
:105C9000002000F0010070473001001034010010B6
:105CA00030B54C680D689C4229BFC0E90053002103
:105CB000E41AED1832BFC0E900514C600D60934208
:105CC00003D1201E18BF012030BD0020FCE74B6827
:105CD00010B59A420C6828BF1A46C0E90042981ACB
:105CE0000B6848601A4400380A6018BF012010BDD4
:105CF00030B54C680B68A24228BF2246002A14BF68
:105D00001D460025C0E90052A4EB02041A444C6071
:105D10000A6014BF0120002030BD0000054B10F0C8
:105D2000800FA3F1900208BF134600F00F0003EBB1
:105D3000001070478410002010F0800F14BF002363
:105D4000102300F00F00184470470000054B1B683B
:105D5000082B02BF044B00221A60044B00221A7069
:105D6000704700BF300100101C7C0240E90F00208A
:105D700007B5094A00231370084AADF805301370BF
:105D80008DF8073001238DF80430054B01A81B68FE
:105D9000984703B05DF804FBE80F002018110020BD
:105DA00014110020704700004B68934228BF13462F
:105DB00070B51D46094B0C4606462A46096818462A
:105DC00008F0ECFBC6E9000560682268401B6060D3
:105DD0002A440038226018BF012070BD2011002025
:105DE0004B68934228BF134670B506460D461C46C5
:105DF0008BB10A4B09682246184608F0CFFB306089
:105E00006B6874601B1B6B602B68201E23442B6027
:105E100018BF012070BD0360F2E700BF2011002011
:105E200007B500238DF804300B4BD3F82025ADF8CF
:105E30000620D3F8C034094A002B13680CBF4FF476
:105E400080714FF001210B431360054B01A81B68C3
:105E5000984703B05DF804FB00700240F00F00208B
:105E60001411002008B50146FFF770FFFFF756FF39
:105E7000837B032B0BD10846FFF75EFF012303FA58
:105E800000F0C143BDE80840034803F093B803683D
:105E9000002BF0D008BD00BFEC0F00208720FFF7DB
:105EA000E1BF8620FFF7DEBF8520FFF7DBBF842040
:105EB000FFF7D8BF8320FFF7D5BF8220FFF7D2BFFF
:105EC0008120FFF7CFBF000008B5FFF73FFF084B69
:105ED00093F89E20032A06D1BDE8084005486FF0DC
:105EE000010103F067B8D3F89030002BF4D008BD5F
:105EF000F40F0020EC0F0020FFF7E6BF07B5FFF717
:105F000025FF0D4B93F88E20032A11D0D3F8803053
:105F100073B90A486FF0807103F04CF806238DF8CE
:105F200004300823ADF80630054B01A81B689847DC
:105F300003B05DF804FB00BFF40F0020EC0F00205D
:105F40001411002007B5FFF701FF104B93F81E2135
:105F5000032A07D10E486FF4807103F02BF803B0C9
:105F60005DF804FBD3F81031002BF8D16FF4807189
:105F7000074803F01FF806238DF804308823ADF896
:105F80000630044B01A81B689847E8E7F40F00208F
:105F9000EC0F002014110020244B13B5D3F800445B
:105FA000C3F80044BFF36F8FBFF34F8FBFF36F8F02
:105FB000BFF34F8FE1050ED51D4B01221A70002350
:105FC000ADF805308DF8073002238DF80430194BF9
:105FD00001A81B689847A2050DD5154A0023137028
:105FE000ADF805308DF8073003238DF80430114BE0
:105FF00001A81B689847630516D50D4B1A789AB10E
:1060000000221A70094B0121C3F808155820FFF728
:106010002AFE04238DF80430064BADF805201B68DA
:106020008DF8072001A8984702B010BD007002400B
:10603000E80F002014110020064B1868082802D130
:1060400004331B6823B9A0F10D035842584170472F
:106050000120704730010010012273B502FA01F5EA
:106060001E491F4E0B6810F0800F43EA05030446DB
:106070000B6027D000F00F021A4B33F8123003F1F7
:10608000804303F51C331A684AB100221A60BFF33B
:106090006F8FBFF34F8F802811D0FFF7E3FE316879
:1060A00029400AD106238DF804308DF806408DF87A
:1060B00007100D4B01A81B68984702B070BDFFF791
:1060C00003FFECE733681D42F7D106238DF8043057
:1060D0008DF806008DF80720EBE700BFF00F0020D9
:1060E000EC0F00202E0501001411002008B5054B0F
:1060F0001A781046FFF720FEBDE80840014610461A
:10610000FFF7AABF181100202DE9F04F7C4B87B094
:106110001A780093002A40F08380DFF810A2DFF89D
:10612000E4B1784BDAF800101D68294078D011F0FE
:10613000012578D095FAA5F5B5FA85F50F2D86BF1E
:10614000A5F11004E4B245F080042046FFF7E6FD17
:106150004FFA84F8B8F1000F8289064604F0080966
:1061600066DAD0E9003104A8984700B93060664B80
:106170001B68082B02BF654B82221A60009B059AA0
:10618000049801211970B368A940DBF8005013444A
:1061900025EA0101B8F1000FB360CBF800105C4BA9
:1061A00004F00F047FDAB9F1000F74D0C3F8A00631
:1061B000C3F8A426FFF762FD25B2A300554A56494D
:1061C0006400002800F08180B8F1000FB2BF042500
:1061D00028250A46514E524F1D4414444FF00008E2
:1061E000C6F80080BFF36F8FBFF34F8F2846FFF7CD
:1061F0003AFD022002F0D2FE3368002BF0D01E20C0
:1062000002F0CCFE3B689B065DD5012002F0C6FE85
:10621000238803F1804303F51C331B68002BDFD078
:1062200007B0BDE8F08F91FAA1F1B1FA81F585E7E9
:106230003749B9F1000F27D0D1F8C03413F4803FAB
:1062400018BF002371683768019304A8B847049AFF
:10625000002A8AD0059A019B9A4286D201214FF0EA
:106260000208A94086F80E80C943504602F0A2FEFB
:1062700006238DF80C302B4B8DF80E401B688DF8E3
:106280000F8003A898474CE704F00F0303F59473BD
:1062900051F82330D6E7142101FB0433C3F800067C
:1062A000C3F8042686E7B9F1000F04D0C3F8A007AD
:1062B000C3F8A4277EE7142101FB0433C3F80007C9
:1062C000C3F8042776E702209AE7B8F1000FB4BFBD
:1062D000042028201844FFF7C6FC12EA280838BF1B
:1062E0008846114938F8153003F1804303F51C3313
:1062F0001A68002A94D10A68002AF9D090E700BFF2
:10630000E90F0020F00F0020300100101C7C02403B
:10631000007002402E0501004A0501000471024090
:10632000747402401411002000710240EC0F002030
:1063300038B5174BD3F86C44C3F86C44BFF36F8F78
:10634000BFF34F8FFFF79AFC38B1124A136823F05E
:10635000011103F001130C43136001251CB9BDE8C2
:106360003840FFF7D1BE94FAA4F1B1FA81F30F2BB4
:10637000C8BFA3F110001946D4BF43F08000C0B2DB
:1063800005FA03F324EA0304FFF766FEE6E700BF1D
:10639000007002401C11002037B50446FFF7D6FC00
:1063A000FFF7BCFC837B032B0DD12046FFF7C4FC19
:1063B000012303FA00F0C1430F4802F0FBFDFFF791
:1063C000A3FE03B030BD0568002DF8D12046FFF7CD
:1063D000B3FC012303FA00F0C143074802F0EAFDD1
:1063E00006238DF80430054B8DF806401B688DF8A8
:1063F000075001A89847E2E7EC0F00201411002095
:106400000720FFF7C9BF0620FFF7C6BF0520FFF72B
:10641000C3BF0420FFF7C0BF0320FFF7BDBF0220AA
:10642000FFF7BABF0120FFF7B7BF0000024A002301
:106430001360024A1370704714110020EA0F002005
:106440004D4B4FF4006210B5C3F80024BFF36F8FBB
:10645000BFF34F8FFFF7F0FD80B10020FFF708FA80
:10646000464B474A1868032100287AD149F2753013
:106470001860116018600020FFF7FCF9414B1B68A1
:10648000082B10D10020FFF7F3F93C4B3E4A186867
:10649000C021002867D149F275301860116018607A
:1064A0000020FFF7E7F9344B0122C3F80025BFF3C2
:1064B0006F8FBFF34F8FD3F800241205FBD54FF435
:1064C0000062C3F80024BFF36F8FBFF34F8F2D4BD3
:1064D0001B68082B1DD10020FFF7CAF9274B2A4A59
:1064E0001868002841D149F27531196010601960AF
:1064F0000020FFF7BFF9234B1B68082B09D1234B62
:1065000040F2E3721A6040225A60BFF36F8FBFF30C
:106510004F8F194B00248022C3F81C25C3F8304547
:106520001B4B40F2FF121A601A4B1C60FFF70EFC67
:10653000194B1C70194B02221A70FFF77DFDC8B170
:106540002046FFF795F90D4B0D4A186880B949F2BE
:106550007531196010601960BDE810400020FFF728
:1065600089B9116087E711609AE700231360BFE7DC
:106570001460F1E710BD00BF0070024000EC06405F
:1065800014ED06403001001014EC06400078024083
:10659000F00F0020EC0F002018110020EA0F00205F
:1065A00008B50F4B00221A70C0B9FFF767FB0D4BFF
:1065B0000D4A002814BF184610460C4B0C4AC3F86D
:1065C0000403E02182F82713802151600122C3F8DF
:1065D0000425BFF36F8FBFF34F8F08BD0148ECE771
:1065E000E80F00200714E0010714C001007002400A
:1065F00000E100E0024B1878003818BF0120704716
:10660000EA0F0020034B1878012894BF00200120D6
:10661000704700BFEA0F0020044B1B78012B83BF9B
:10662000034B5868C0F3C01000207047EA0F0020E9
:1066300000E100E010B50020FFF71AF9124B1B78BB
:1066400003F0FF04BBB1114AD2F82C35D3B10023BB
:10665000C2F82C350E4B1B68082B0CD10D4B18685B
:1066600002F58F2202F21442C02148B949F2753076
:106670001860116018600020FFF7FCF8204610BD7C
:106680001160F8E71C46F6E7E80F002000700240B2
:106690003001001000EC0640024B034AC3F8082307
:1066A000704700BF0070024004148001024B034A8F
:1066B000C3F80423704700BF007002400414800137
:1066C000014B00221A707047E80F002008B5FFF751
:1066D00025FB818108BD000073B51D4B1C78002C83
:1066E00033D11C4A106001221A702546264615F047
:1066F000080F65F07F00C0B20CBF40214FF400715D
:106700000190FFF7E3FF0198FFF708FB0135092D22
:10671000867306608660EAD1402100252046FFF797
:10672000D5FF2046FFF7FAFA0134E4B2092C85734D
:106730000560856002D1002002B070BD14F0080F22
:1067400014BF4FF400714021E8E70820F4E700BFD0
:10675000EA0F00201411002008B5FFF7DFFA808946
:1067600008BD0000064A10F0800F00F00F0314BFB0
:10677000D2F81005D2F81405D84000F00100704797
:10678000007002402DE9F047074600208846FFF7D9
:106790006FF817F00F0503D1294B1B78BB424AD184
:1067A000284B294A1C6816683846FFF7C5FAE443A7
:1067B000A4B24FF00109344309FA00F914EA0904BC
:1067C00092463AD13846FFF7A9FA0C2255433A06C9
:1067D00003462CD51D4AD8F80010154401F060413D
:1067E000D8F80820B1F1005F02F001021AD1BAB95D
:1067F000174A1A6098E8070085E8070000229A60A7
:106800009A735D60134B46EA09068022CAF800605D
:10681000C3F804210020FFF72DF82046BDE8F087DB
:106820000D4AE6E70AB90D4AE3E70D4AE1E70D4AEA
:1068300015440D4ADDE71024ECE71124EAE700BF18
:1068400018110020F00F0020EC0F0020D01A0020BB
:10685000CF5C000000E100E0F15C0000A95D0000F9
:10686000E15D00003C1B0020A15C00002DE9F0412F
:10687000074600200E46FEF7FBFF3B0703D1174BF0
:106880001B78BB4225D1164B16491C680D6838464B
:10689000FFF752FAE443A4B201232C4303FA00F8B1
:1068A00014EA080417D13846FFF738FA3368036052
:1068B000736843600C4B846045EA0805802284734A
:1068C0000D60C3F804210020FEF7D4FF2046BDE888
:1068D000F0811024F7E71124F5E700BF181100201C
:1068E000F00F0020EC0F002000E100E000487047AE
:1068F00020110020044B40F48070C3F81805BFF34A
:106900006F8FBFF34F8F704700700240020713D4A0
:1069100000F00F0310F0800F084A0BBF03F58873D7
:1069200003F5847302EB830352F8230008BF586811
:10693000431E584258417047002070470070024083
:10694000064BC3F80C05BFF34F8F40F48070C3F8BB
:106950000C05BFF36F8FBFF34F8F7047007002407D
:106960000023036043600E4BD3F880240270D3F8F9
:1069700084244270D3F88824D3F88C1442EA01228C
:106980004280D3F89024D3F8941442EA0122828002
:10699000D3F89824D3F89C3442EA0323C380704789
:1069A0000070024008B5FFF769F958B1EFF31082A3
:1069B00072B64C20FFF757F94C20FFF754F982F3D9
:1069C000108808BDBDE808404C20FFF74CB9000016
:1069D00013B5FFF7BBF90F4B9A7B032A06D10E487C
:1069E0006FF4803102F0E6FA02B010BD1C6874B991
:1069F0006FF48031084802F0DDFA06238DF8043088
:106A0000064BADF806401B6801A89847ECE7FFF776
:106A1000C9FFE9E7F40F0020EC0F0020141100205B
:106A20005020FFF720B95420FFF71DB9014B18780B
:106A3000704700BF1811002070B50446FFF71EF91B
:106A400002462046FFF778F9012303FA00F5184EB5
:106A5000ED43AAB10020FEF70BFF04F00F043068ED
:106A6000144B6400054004F2C57400203560043303
:106A700043F8044C18601B68BDE87040FEF7FABE8E
:106A80001046FEF7F5FE306814F0080205EA00052E
:106A900035600AD104F00F04074B04F5947443F8F1
:106AA0002420BFF36F8FBFF34F8F0020E4E700BFB8
:106AB000F00F00200078024000700240F7B5044655
:106AC0000020FEF7D5FE2046FFF728F905462046B0
:106AD000FFF732F9012314F0800F2A4E03FA00F376
